:020000020000FC
:100000000FE50DBF08E00EBF0FEF0ABB04BB4FEFBB
:1000100002E00E949E010BBB5FEE55BB0E94D10126
:100020005FEF55BB01E00E949E010BBB5FED55BB2E
:100030000E94D1015FEF55BB02E00E949E010BBB05
:100040005FEB55BB0E94D1015FEF55BB05E00E94FD
:100050009E010BBB5FE755BB0E94D1015FEF55BB13
:100060004A95B1F64FEF02E00E949E010BBB5FEE96
:1000700055BB0E94D1015FEF55BB01E00E949E017C
:100080000BBB5FED55BB0E94D1015FEF55BB09E093
:100090000E949E010BBB5FEB55BB0E94D1015FEF3D
:1000A00055BB01E00E949E010BBB5FE755BB0E9460
:1000B000D1015FEF55BB4A95B1F64FEF02E00E94C8
:1000C0009E010BBB5FEE55BB0E94D1015FEF55BB9C
:1000D00001E00E949E010BBB5FED55BB0E94D10168
:1000E0005FEF55BB03E00E949E010BBB5FEB55BB6E
:1000F0000E94D1015FEF55BB04E00E949E010BBB43
:100100005FE755BB0E94D1015FEF55BB4A95B1F641
:100110004FEF09E00E949E010BBB5FEE55BB0E94B2
:10012000D1015FEF55BB01E00E949E010BBB5FED6B
:1001300055BB0E94D1015FEF55BB04E00E949E01B8
:100140000BBB5FEB55BB0E94D1015FEF55BB09E0D4
:100150000E949E010BBB5FE755BB0E94D1015FEF80
:1001600055BB4A95B1F64AE007E00BBB5FE755BBCC
:100170000E94D1015FEF55BB4A95B1F74AE003E019
:100180000BBB5FE755BB0E94D1015FEF55BB01E0A0
:100190000BBB5FEB55BB0E94D1015FEF55BB4A958E
:1001A00071F74AE001E00BBB5FE755BB0E94D1014C
:1001B0005FEF55BB01E00BBB5FEB55BB0E94D1016C
:1001C0005FEF55BB01E00BBB5FED55BB0E94D1015A
:1001D0005FEF55BB4A9531F74AE001E00BBB5FEB9F
:1001E00055BB0E94D1015FEF55BB01E00BBB5FED3A
:1001F00055BB0E94D1015FEF55BB01E00BBB5FEE29
:1002000055BB0E94D1015FEF55BB4A9531F74AE0DB
:1002100001E00BBB5FED55BB0E94D1015FEF55BB09
:1002200001E00BBB5FEE55BB0E94D1015FEF55BBF8
:1002300001E20BBB5FEE55BB0E94D1015FEF55BBE6
:100240004A9531F74AE001E00BBB5FEE55BB0E94D7
:10025000D1015FEF55BB01E30BBB5FEE55BB0E94C5
:10026000D1015FEF55BB4A9571F74AE008E30BBB3C
:100270005FEE55BB0E94D1015FEF55BB4A95B1F7C8
:100280004AE008E10BBB5FEE55BB0E94D1015FEF76
:1002900055BB08E00BBB5FED55BB0E94D1015FEF82
:1002A00055BB4A9571F74AE008E00BBB5FEE55BBC2
:1002B0000E94D1015FEF55BB08E00BBB5FED55BB62
:1002C0000E94D1015FEF55BB08E00BBB5FEB55BB54
:1002D0000E94D1015FEF55BB4A9531F74AE008E033
:1002E0000BBB5FED55BB0E94D1015FEF55BB08E032
:1002F0000BBB5FEB55BB0E94D1015FEF55BB08E024
:100300000BBB5FE755BB0E94D1015FEF55BB4A9520
:1003100031F74AE008E00BBB5FE755BB0E94D10113
:100320005FEF55BB0CE00BBB5FE755BB0E94D101F3
:100330005FEF55BB4A9571F70C94B300003019F488
:100340000FE30C94D001013019F406E00C94D001B5
:10035000023019F40BE50C94D001033019F40FE4CA
:100360000C94D001043019F406E60C94D001053049
:1003700019F40DE60C94D001063019F40DE70C9435
:10038000D001073019F407E00C94D001083019F4BB
:100390000FE70C94D001093019F40FE60C94D0014A
:1003A00008951F932F933F9334E625E012E0000059
:1003B0001A95E9F72A95D1F73A95B9F73F912F9118
:0403C0001F910895EC
:00000001FF
